S00B00005453352E737265633D
S11300000C945F000C9487000C9487000C94870078
S11300100C9487000C9487000C9487000C94870040
S11300200C9487000C9487000C9487000C94EE01C8
S11300300C9487000C9487000C9487000C94870020
S11300400C948D0A0C9487000C9449080C947B083A
S11300500C9487000C9487000C9487000C94870000
S11300600C9438030C94870000000008000201007F
S1130070000304070000000000000000010204085F
S113008010204080010204081020010204081020FE
S1130090040404040404040402020202020203032A
S11300A00303030300000000250028002B000000C8
S11300B00000240027002A00E6010305AB081124F0
S11300C01FBECFEFD8E0DEBFCDBF11E0A0E0B1E0AE
S11300D0E4EEFAE102C005900D92A234B107D9F71B
S11300E022E0A2E4B1E001C01D92A33DB207E1F712
S11300F010E0CFE5D0E004C02197FE010E94F70C88
S1130100CC35D107C9F70E94D9080C94700D0C9412
S1130110000026E040E855E260E070E08DE292E005
S11301200E94E40765E071E08DE292E00E943309E9
S113013061E086E00E94C40B61E085E00E94C40B8C
S113014061E084E00E94C40B60E081E10E94C40B82
S113015061E084E00E94000C61E085E00E94000CF4
S113016080E293E00E94380B60E085E00E94000C7E
S113017080E293E00E94380B81E10E947E0BE8CF7D
S11301806CE775E180E090E00E94FC0A68EE73E0A1
S113019085E491E00E94CB0268EE73E082E491E092
S11301A00E94CB02C12CD12CE12CF12C24EB30E0A9
S11301B040E050E06CE47FEF8FEF9FEF0E94540C1F
S11301C00E94ED05162FD72FC82F092F20E030E00D
S11301D0A9010E947405811108C061E084E00E94B5
S11301E0000C60E085E00E94000C9601A701612FDD
S11301F07D2F8C2F902F0E9407052B013C0120E0BE
S113020030E04BE153E40E94A20620E030E040E8F5
S11302105DE30E94A20626E636E646EE5FE30E9410
S113022079056B017C0120E030E0A9010E9474058E
S11302304601570187FF04C0B7FAB094B7F8B094E9
S113024022E030E0B501A4018DE292E00E947B0A35
S113025022E030E0412F5D2F6C2F702F8DE292E071
S11302600E947B0A22E030E0B301A2018DE292E019
S11302700E947B0A22E030E0412F5D2F6C2F702F0B
S11302808DE292E00E947B0A20E030E342EF54E4E6
S1130290C701B6010E94740518168CF120E030E005
S11302A0A901C701B6010E949D06181644F561E034
S11302B084E00E94000CE12CF12CB7010F2C000CFF
S11302C0880B990B0E94ED05A50194010E94740509
S11302D018160CF452C061E085E00E94000C80E224
S11302E093E00E94380B60E085E00E94000C80E2FD
S11302F093E00E94380B8FEFE81AF80ADECF20E073
S113030030E342EF54ECC701B6010E949D0687FD1D
S113031030C020E030E0A901C701B6010E94740595
S113032087FF27C060E084E00E94000CE12CF12CE0
S1130330B7010F2C000C880B990B0E94ED05A50149
S113034094010E9474051816C4F061E085E00E94CF
S1130350000C80E293E00E94380B60E085E00E948C
S1130360000C80E293E00E94380B8FEFE81AF80A41
S1130370DFCF60E085E00E94000C6CE474E085E46B
S113038091E00E94CB026CE474E082E491E00E946C
S1130390CB0260ED77E080E090E00E94FC0A68EE1A
S11303A073E085E491E00E94CB0268EE73E082E49E
S11303B091E00E94CB0260ED77E080E090E00E9443
S11303C0FC0AC12EDD2EEC2EF02EF0CE85E491E059
S11303D00E94AF0282E491E00C94AF021F920F924C
S11303E00FB60F9211242F933F934F935F936F9304
S11303F07F938F939F93AF93BF93EF93FF938091DA
S1130400490187FF05C010928500109284001BC02B
S113041020914901022E000C330B8091480190E099
S11304202817390784F480914901082E000C990B90
S1130430FC01EE0FFF1F8E0F9F1FFC01E65BFE4FBA
S1130440808186FD15C0809149018F5F80934901A9
S113045020914901022E000C330B8091480190E059
S113046028173907C4F4809149018C3064F113C012
S113047080914901082E000C990BFC01EE0FFF1F1F
S11304808E0F9F1FFC01E65BFE4F808160E08F733F
S11304900E94000CD8CF809184009091850004962E
S11304A080349C4918F480E49CE905C08091840060
S11304B090918500049690938900809388008FEF33
S11304C0809349013BC02091840030918500809144
S11304D04901082E000C990BFC01EE0FFF1F8E0F33
S11304E09F1FFC01E65BFE4F81819281820F931F67
S11304F0909389008093880080914901082E000C14
S1130500990BFC01EE0FFF1F8E0F9F1FFC01E65B92
S1130510FE4F808186FF12C080914901082E000C95
S1130520990BFC01EE0FFF1F8E0F9F1FFC01E65B72
S1130530FE4F808161E08F730E94000CFF91EF9168
S1130540BF91AF919F918F917F916F915F914F91E7
S11305503F912F910F900FBE0F901F901895FC01A3
S1130560909148019C30A0F481E0890F8093480168
S11305709083892F90E0FC01EE0FFF1F8E0F9F1FC9
S1130580FC01E65BFE4F88EB9BE092838183089538
S11305908FEF80830895FC0190819C3080F58181E8
S11305A028E830E0281B310987FD3395220F331FDB
S11305B0220F331F621773077CF0828128E532E033
S11305C0281B310987FD3395220F331F220F331F58
S11305D0621773070CF49B0122503109220F331F59
S11305E04FB7F894892F90E0FC01EE0FFF1F8E0F98
S11305F09F1FFC01E65BFE4F328321834FBF0895AA
S113060040919001262F30E0240F311D2132310515
S1130610DCF42091DB012430C9F4FC0180E090E09B
S1130620861758F4309190012191DC01AE56BE4FEB
S1130630A30FB11D2C930196F3CF80919001680F05
S11306406093900180E0089581E0089582E0089528
S113065085ED8093BC008091BC0084FDFCCF10929A
S1130660DB01089585EC8093BC001092DB010895B2
S11306701F920F920FB60F9211242F933F934F9313
S11306805F936F937F938F939F93AF93BF93EF93F6
S1130690FF938091B900887F803609F49EC078F575
S11306A0883209F45DC090F4803109F456C038F4FE
S11306B0882309F4F5C0883009F44FC0F5C08831A7
S11306C009F44EC0803209F45FC0EEC0803409F4EE
S11306D06AC058F4803309F457C0883309F0E4C081
S11306E080936E010E943203DFC0803509F44FC04D
S11306F0883509F45DC0883409F0D6C0D3C0883980
S113070009F4C4C0A8F4883709F467C038F48836FB
S113071009F463C0803709F460C0C6C0883809F49E
S1130720B5C0803909F45FC0803809F0BDC05BC032
S1130730803B09F483C038F4803A09F466C0883AEF
S113074009F47CC0B1C0803C09F4A4C0883C09F41D
S1130750A1C0883B09F487C0A7C08091DA0110C00A
S11307609091B3018091B201981770F5E091B301B3
S113077081E08E0F8093B301F0E0EC54FE4F808152
S11307808093BB0085EC83C080936E018BC0E091A5
S1130790B30181E08E0F8093B3018091BB00F0E040
S11307A0EC54FE4F80839091B3018091B2016BC0F1
S11307B0E091B30181E08E0F8093B3018091BB007F
S11307C0F0E0EC54FE4F80838091D90181116AC01E
S11307D081E08093D80184EA5EC083E08093DB01EA
S11307E010926F01CFCF80916F01803208F04EC01C
S11307F0E0916F0181E08E0F80936F018091BB00C7
S1130800F0E0E059FE4F8083BDCF0E943203809117
S11308106F01803230F4E0916F01F0E0E059FE4F57
S1130820108260916F0170E0E091D401F091D501E4
S113083080E791E0099510926F0136C084E08093BF
S1130840DB011092910110929001E091D601F09198
S1130850D701099580919001811105C081E08093B1
S1130860900110929201E091910181E08E0F8093AA
S11308709101F0E0EE56FE4F80818093BB00909191
S1130880910180919001981708F47CCF85E88093BA
S1130890BC000AC085EC8093BC001092DB0104C04C
S11308A010926E010E942803FF91EF91BF91AF91C6
S11308B09F918F917F916F915F914F913F912F9174
S11308C00F900FBE0F901F90189580E090E0089550
S11308D080910B0290E020910C02821B91090895F3
S11308E090910C0280910B02981750F4E92FF0E0DC
S11308F0E35FFD4F208130E09F5F90930C0202C0C4
S11309002FEF3FEFC9010895E0910C0280910B0293
S1130910E81730F4F0E0E35FFD4F808190E0089544
S11309208FEF9FEF08950895CF92DF92EF92FF9299
S11309300F931F93CF93DF937C01262F972F8A0168
S11309408091E801882391F0C62FD72F6E01C40E41
S1130950D51ECC15DD0571F06991D701ED91FC919F
S11309600190F081E02DC7010995F3CF642F822F08
S11309700E940003C801DF91CF911F910F91FF9056
S1130980EF90DF90CF900895CF93DF931F92CDB770
S1130990DEB769832091E8012223D1F02091E90197
S11309A0203240F021E030E0FC013383228380E0F8
S11309B090E015C08091EA01E82FF0E0E551FE4F88
S11309C0998190838F5F8093EA018093E90105C048
S11309D061E0CE0101960E94000381E090E00F9057
S11309E0DF91CF910895FC011382128288EE93E087
S11309F0A0E0B0E084839583A683B78382E191E08D
S1130A009183808308958CED91E00C94F304505805
S1130A10BB27AA270E941F050C9463060E94550653
S1130A2038F00E945C0620F039F49F3F19F426F454
S1130A300C9452060EF4E095E7FB0C944C06E92F57
S1130A400E94740658F3BA17620773078407950760
S1130A5020F079F4A6F50C9496060EF4E0950B2E8E
S1130A60BA2FA02D0B01B90190010C01CA01A001FC
S1130A701124FF27591B99F0593F50F4503E68F157
S1130A801A16F040A22F232F342F4427585FF3CF98
S1130A90469537952795A795F0405395C9F77EF469
S1130AA01F16BA0B620B730B840BBAF09150A1F0B2
S1130AB0FF0FBB1F661F771F881FC2F70EC0BA0F38
S1130AC0621F731F841F48F4879577956795B795C0
S1130AD0F7959E3F08F0B0CF9395880F08F09927BB
S1130AE0EE0F9795879508950E94280608F481E0F3
S1130AF008950E948D050C9463060E945C0658F0CC
S1130B000E94550640F029F45F3F29F00C944C06EE
S1130B1051110C9497060C9452060E94740668F3C3
S1130B209923B1F3552391F3951B550BBB27AA27A2
S1130B3062177307840738F09F5F5F4F220F331FDC
S1130B40441FAA1FA9F335D00E2E3AF0E0E832D0A4
S1130B5091505040E695001CCAF72BD0FE2F29D0A7
S1130B60660F771F881FBB1F261737074807AB0779
S1130B70B0E809F0BB0B802DBF01FF2793585F4FEE
S1130B803AF09E3F510578F00C944C060C9497066D
S1130B905F3FE4F3983ED4F3869577956795B795D0
S1130BA0F7959F5FC9F7880F911D9695879597F9DB
S1130BB00895E1E0660F771F881FBB1F6217730754
S1130BC08407BA0720F0621B730B840BBA0BEE1F69
S1130BD088F7E0950895E89409C097FB3EF4909552
S1130BE08095709561957F4F8F4F9F4F9923A9F002
S1130BF0F92F96E9BB279395F69587957795679591
S1130C00B795F111F8CFFAF4BB0F11F460FF1BC0D4
S1130C106F5F7F4F8F4F9F4F16C0882311F096E967
S1130C2011C0772321F09EE8872F762F05C0662315
S1130C3071F096E8862F70E060E02AF09A95660FCE
S1130C40771F881FDAF7880F9695879597F9089587
S1130C50990F0008550FAA0BE0E8FEEF16161706C9
S1130C60E807F907C0F012161306E407F50798F031
S1130C70621B730B840B950B39F40A2661F0232B4A
S1130C80242B252B21F408950A2609F4A140A695C6
S1130C908FEF811D811D089597F99F6780E870E0AB
S1130CA060E008959FEF80EC089500240A941616DE
S1130CB0170618060906089500240A941216130646
S1130CC0140605060895092E0394000C11F48823D4
S1130CD052F0BB0F40F4BF2B11F460FF04C06F5FF0
S1130CE07F4F8F4F9F4F089557FD9058440F551FC6
S1130CF059F05F3F71F04795880F97FB991F61F09A
S1130D009F3F79F087950895121613061406551F10
S1130D10F2CF4695F1DF08C0161617061806991F7C
S1130D20F1CF86957105610508940895E894BB2771
S1130D3066277727CB0197F908950E94280608F4BF
S1130D408FEF08950E94B5060C9463060E94550621
S1130D5038F00E945C0620F0952311F00C944C06A8
S1130D600C94520611240C9497060E94740670F396
S1130D70959FC1F3950F50E0551F629FF001729F3C
S1130D80BB27F00DB11D639FAA27F00DB11DAA1F4B
S1130D90649F6627B00DA11D661F829F2227B00D98
S1130DA0A11D621F739FB00DA11D621F839FA00D23
S1130DB0611D221F749F3327A00D611D231F849F73
S1130DC0600D211D822F762F6A2F11249F575040CA
S1130DD09AF0F1F088234AF0EE0FFF1FBB1F661F45
S1130DE0771F881F91505040A9F79E3F510580F00E
S1130DF00C944C060C9497065F3FE4F3983ED4F3AE
S1130E00869577956795B795F795E7959F5FC1F7B1
S1130E10FE2B880F911D9695879597F90895FC01EF
S1130E20918D228D892F90E0805C9F4F821B9109C8
S1130E308F7399270895FC01918D828D981731F055
S1130E40828DE80FF11D858D90E008958FEF9FEF5F
S1130E500895FC01918D828D981761F0828DDF01D8
S1130E60A80FB11D5D968C91928D9F5F9F73928F99
S1130E7090E008958FEF9FEF0895FC01538D448D0A
S1130E80252F30E0842F90E0821B930B541710F031
S1130E90CF9608950197089581EA98E0892B49F047
S1130EA080E090E0892B29F00E94A10881110C9424
S1130EB000000895FC01848DDF01A80FB11DA35A21
S1130EC0BF4F2C91848D90E001968F739927848F66
S1130ED0A689B7892C93A089B1898C9180648C935D
S1130EE0938D848D981306C00288F389E02D808148
S1130EF08F7D80830895CF93DF93EC01888D8823C1
S1130F00C9F0EA89FB89808185FD05C0A889B98972
S1130F108C9186FD0FC00FB607FCF5CF808185FF4D
S1130F20F2CFA889B9898C9185FFEDCFCE010E94BB
S1130F305A07E7CFDF91CF910895EF92FF920F9375
S1130F401F93CF93DF93EC0181E0888F9B8D8C8D71
S1130F50981305C0E889F989808185FD24C0F62E9F
S1130F600B8D10E00F5F1F4F0F731127E02E8C8D38
S1130F70E8120CC00FB607FCFACFE889F989808122
S1130F8085FFF5CFCE010E945A07F1CF8B8DFE016C
S1130F90E80FF11DE35AFF4FF0820B8FEA89FB89BA
S1130FA08081806207C0EE89FF896083E889F989BE
S1130FB080818064808381E090E0DF91CF911F91F4
S1130FC00F91FF90EF900895CF92DF92EF92FF92EE
S1130FD01F93CF93DF93EC016A017B01122FE88901
S1130FE0F98982E080834115514E61057105B1F0A4
S1130FF060E079E08DE390E0A70196010E94AB0CDC
S1131000DA01C9010197A109B109B695A795979588
S11310108795AC01411580E15807A8F0E889F98962
S1131020108260E874E88EE190E0A70196010E94C6
S1131030AB0CBA01A90141505109610971097695B6
S1131040679557954795EC85FD855083EE85FF851B
S11310504083188EEC89FD891083EA89FB8980819D
S113106080618083EA89FB89808188608083EA8942
S1131070FB89808180688083EA89FB8980818F7DF8
S11310808083DF91CF911F91FF90EF90DF90CF90FD
S113109008951F920F920FB60F9211242F938F93DE
S11310A09F93EF93FF93E0913D02F0913E02808184
S11310B0E0914302F091440282FD12C0908180913C
S11310C046028F5F8F7320914702821751F0E0919F
S11310D04602F0E0E35DFD4F958F8093460201C028
S11310E08081FF91EF919F918F912F910F900FBE6F
S11310F00F901F9018951F920F920FB60F92112404
S11311002F933F934F935F936F937F938F939F930B
S1131110AF93BF93EF93FF938DE292E00E945A073F
S1131120FF91EF91BF91AF919F918F917F916F91BB
S11311305F914F913F912F910F900FBE0F901F9091
S113114018958DE292E00E940F0721E0892B09F4A3
S113115020E0822F0895EDE2F2E01382128288EEFD
S113116093E0A0E0B0E084839583A683B78384E210
S113117091E09183808385EC90E09587848784EC6B
S113118090E09787868780EC90E0918B808B81EC50
S113119090E0938B828B82EC90E0958B848B86EC31
S11311A090E0978B868B118E128E138E148E089579
S11311B008950E94430B0E94D8080E948900CCE441
S11311C0D7E00E94C0002097E1F30E944C07F9CFBA
S11311D0CF92DF92EF92FF920F931F93CF93DF93FF
S11311E06C017A018B01C0E0D0E0CE15DF0589F0F7
S11311F0D8016D918D01D601ED91FC910190F081A2
S1131200E02DC6010995892B11F47E0102C02196B7
S1131210ECCFC701DF91CF911F910F91FF90EF9019
S1131220DF90CF9008956115710579F0FB0101906D
S11312300020E9F73197AF01461B570BDC01ED9114
S1131240FC910280F381E02D099480E090E0089500
S1131250DC01ED91FC910190F081E02D099462E3B1
S113126071E00C9413090F931F93CF93DF93EC0158
S11312700E9413098C01CE010E942F09800F911F37
S1131280DF91CF911F910F9108958F929F92AF920A
S1131290BF92CF92DF92EF92FF920F931F93CF935F
S11312A0DF93CDB7DEB7A1970FB6F894DEBF0FBEBC
S11312B0CDBF7C01D42EC52EDB0119A2223008F447
S11312C02AE08E010F5D1F4F822E912CA12CB12C90
S11312D06D2D7C2DCD01A50194010E94AB0CD22E65
S11312E0C32EDA01015011096A3071058105910597
S11312F010F4605D01C0695CF8016083232B242B2A
S1131300252B31F7B801C7010E941309A1960FB626
S1131310F894DEBF0FBECDBFDF91CF911F910F9127
S1131320FF90EF90DF90CF90BF90AF909F908F9001
S113133008954F925F926F927F928F929F92AF9295
S1131340BF92CF92DF92EF92FF92CF93DF93EC01A3
S11313506A017B01B22E9A01AB01C701B6010E945A
S1131360A60C882319F065E371E027C02601370134
S1131370E89477F82FEF3FEF4FE75FE7C301B2013F
S11313800E94A60C81110DC02FEF3FEF4FE75FE7DE
S1131390C301B2010E94740518161CF469E371E0DC
S11313A00CC02FEF3FEF4FE75FE4C701B6010E9487
S11313B09D0618169CF46DE371E0CE01DF91CF9188
S11313C0FF90EF90DF90CF90BF90AF909F908F9061
S11313D07F906F905F904F900C9413092FEF3FEF25
S11313E04FE75FECC701B6010E94740587FDE3CFA8
S11313F020E030E0A901C701B6010E94740587FF0F
S11314000AC06DE2CE010E9428094C01F7FAF0945B
S1131410F7F8F09402C0812C912CA12C60E070E0CC
S113142080E09FE3AB1441F020E030E040E251E47F
S11314300E947905A394F6CF9B01AC01C701B601C4
S11314400E9408052B013C010E94770C6B017C0172
S11314500E94EB059B01AC01C301B2010E94070588
S11314602B013C012AE0B701A601CE010E944509E7
S11314707C01E80CF91CBB2031F06EE2CE010E9425
S11314802809E80EF91EDB2CDD2029F120E030E0EC
S113149040E251E4C301B2010E94A2062B013C01C7
S11314A00E94770C4B01A12CB12C2AE0B501A401B8
S11314B0CE010E944509E80EF91EC501B4010E943F
S11314C0EB059B01AC01C301B2010E9407052B018E
S11314D03C01DA94D9CFC701DF91CF91FF90EF900F
S11314E0DF90CF90BF90AF909F908F907F906F9040
S11314F05F904F9008950F931F93CF93DF93EC0168
S11315000E9499098C01CE010E942F09800F911F1E
S1131510DF91CF911F910F9108951F920F920FB6F3
S11315200F9211242F933F938F939F93AF93BF9365
S11315308091CB029091CC02A091CD02B091CE02C9
S11315403091CA0223E0230F2D3720F40196A11D08
S1131550B11D05C026E8230F0296A11DB11D2093DD
S1131560CA028093CB029093CC02A093CD02B09395
S1131570CE028091CF029091D002A091D102B0917D
S1131580D2020196A11DB11D8093CF029093D00287
S1131590A093D102B093D202BF91AF919F918F914A
S11315A03F912F910F900FBE0F901F9018953FB74A
S11315B0F8948091CF029091D002A091D102B09181
S11315C0D20226B5A89B05C02F3F19F00196A11D94
S11315D0B11D3FBFBA2FA92F982F8827820F911DC5
S11315E0A11DB11DBC01CD0142E0660F771F881F0C
S11315F0991F4A95D1F708958F929F92AF92BF9207
S1131600CF92DF92EF92FF926B017C010E94D70A86
S11316104B015C01C114D104E104F10401F10E9405
S1131620760C0E94D70ADC01CB0188199909AA0912
S1131630BB09883E9340A105B10560F321E0C21ABD
S1131640D108E108F10888EE880E83E0981EA11CF9
S1131650B11CC114D104E104F10419F7DBCFFF90EC
S1131660EF90DF90CF90BF90AF909F908F900895B0
S11316708230910538F0880F991F880F991F0597BC
S11316800197F1F70895789484B5826084BD84B598
S1131690816084BD85B5826085BD85B5816085BD69
S11316A0EEE6F0E0808181608083E1E8F0E0108282
S11316B0808182608083808181608083E0E8F0E0C3
S11316C0808181608083E1EBF0E0808184608083AD
S11316D0E0EBF0E0808181608083EAE7F0E08081E4
S11316E08460808380818260808380818160808344
S11316F08081806880831092C10008958E3008F044
S11317008E5087702091040190E4299F9001112448
S1131710822B80937C0080917A00806480937A008D
S113172080917A0086FDFCCF809178002091790029
S113173090E0922B0895833081F028F4813099F061
S11317408230A1F008958730A9F08830B9F0843050
S1131750D1F4809180008F7D03C0809180008F77C9
S113176080938000089584B58F7702C084B58F7DFF
S113177084BD08958091B0008F7703C08091B0003C
S11317808F7D8093B0000895CF93DF9390E0FC01A8
S1131790E458FF4F2491FC01E057FF4F84918823C4
S11317A061F190E0880F991FFC01E255FF4FC5914C
S11317B0D491FC01EC55FF4FA591B491611109C07E
S11317C09FB7F8948881209582238883EC912E23F7
S11317D00BC0623061F49FB7F8943881822F8095F2
S11317E083238883EC912E2B2C939FBF06C08FB745
S11317F0F894E8812E2B28838FBFDF91CF91089531
S11318001F93CF93DF93282F30E0F901E859FF4F5E
S11318108491F901E458FF4FD491F901E057FF4F47
S1131820C491CC23C9F0162F81110E949B0BEC2F7D
S1131830F0E0EE0FFF1FEC55FF4FA591B4918FB769
S1131840F894111105C09C91ED2FE095E92302C095
S1131850EC91ED2BEC938FBFDF91CF911F91089505
S1131860CF93DF9300D000D0CDB7DEB761157105FB
S11318708105910579F09B01AC0169833A834B831F
S11318805C830E945A0D29813A814B815C810E94BC
S1131890CD0C03C060E070E0CB010F900F900F906F
S11318A00F90DF91CF910895CF92DF92EF92FF9244
S11318B00F931F93621773078407950784F48901B4
S11318C09A016B017C01C901B8016C197D098E096B
S11318D09F090E94300C6C0D7D1D8E1D9F1D1F9154
S11318E00F91FF90EF90DF90CF90089508950E949C
S11318F07C0688F09F5798F0B92F9927B751B0F01C
S1131900E1F0660F771F881F991F1AF0BA95C9F77F
S113191014C0B13091F00E949606B1E008950C9481
S11319209606672F782F8827B85F39F0B93FCCF334
S1131930869577956795B395D9F73EF490958095FC
S1131940709561957F4F8F4F9F4F08950E94280691
S1131950880B990B0895A1E21A2EAA1BBB1BFD014B
S11319600DC0AA1FBB1FEE1FFF1FA217B307E4077A
S1131970F50720F0A21BB30BE40BF50B661F771FD2
S1131980881F991F1A9469F76095709580959095B2
S11319909B01AC01BD01CF010895052E97FB1EF4F8
S11319A000940E94E40C57FD07D00E94AB0C07FC86
S11319B003D04EF40C94E40C509540953095219549
S11319C03F4F4F4F5F4F0895909580957095619567
S11319D07F4F8F4F9F4F08950E94FD0CA59F900D40
S11319E0B49F900DA49F800D911D11240895EE0FB6
S11319F0FF1F0590F491E02D0994A29FB001B39FBD
S1131A00C001A39F700D811D1124911DB29F700D03
S1131A10811D1124911D08958F929F92AF92BF92C0
S1131A20CF92DF92EF92FF92CF93DF93EC01688124
S1131A3079818A819B81611571058105910521F464
S1131A4064E279ED8BE597E02DE133EF41E050E07E
S1131A500E94CD0C49015A019B01AC01A7EAB1E4F3
S1131A600E94EC0C6B017C01ACEEB4EFA501940177
S1131A700E946B0DDC01CB018C0D9D1DAE1DBF1DA5
S1131A80B7FF03C00197A109B04888839983AA834B
S1131A90BB83BC01CD019F77DF91CF91FF90EF9085
S1131AA0DF90CF90BF90AF909F908F9008950E9449
S1131AB00C0D089580E091E00E940C0D0895609350
S1131AC00001709301018093020190930301089532
S1131AD0B7FF0C94EC0C0E94EC0C821B930B089542
S1071AE0F894FFCFA4
S1131AE40100000001373737373737373700000034
S1131AF40000C40494046504930468047004840416
S1131B04000000009D07E8083D077B070F0729072D
S1131B141B070D0A006E616E00696E66006F7666BF
S1051B240000BB
S9030000FC
